S011000041746D656C556172742E7372656384
S11300000C9434000C943E000C943E000C943E007E
S11300100C943E000C943E000C943E000C943E0064
S11300200C943E000C943E000C943E000C943E0054
S11300300C943E000C943E000C943E000C943E0044
S11300400C943E000C943E000C943E000C943E0034
S11300500C943E000C943E000C943E000C943E0024
S11300600C943E000C943E0011241FBECFEFD8E048
S1130070DEBFCDBF0E9468000C946F000C9400009A
S11300801092C5008FEC8093C400E0ECF0E0808116
S113009082608083E2ECF0E0808186608083E1EC22
S11300A0F0E080818061808380818860808308950E
S11300B0E0ECF0E0908195FFFDCF8093C6000895B9
S11300C0E0ECF0E080818823ECF78091C60008958D
S11300D00E9440000E9460000E945800FBCFF894E8
S10500E0FFCF4C
S9030000FC
