:100000000C9434000C9448000C9446000C94460068
:100010000C9446000C9446000C9446000C94460048
:100020000C9446000C9446000C9446000C94460038
:100030000C9446000C9446000C9446000C94460028
:100040000C9446000C9446000C9446000C94460018
:100050000C9446000C9446000C9446000C94460008
:100060000C9446000C94460011241FBECFEFD8E03C
:10007000DEBFCDBF21E0A0E0B1E001C01D92A23003
:10008000B207E1F70E9468000C947F000C94000016
:100090001F920F920FB60F9211242F933F938F93BD
:1000A0009F93209100013091010181E090E0232B8A
:1000B00011F080E090E090930101809300019F9106
:1000C0008F913F912F910F900FBE0F901F90189519
:1000D000259A52985A9AE9E6F0E0808182608083FE
:1000E00080818E7F8083E89A78948091000190913E
:1000F0000101019711F42D9AF8CF2D98F6CFF894BD
:02010000FFCF2F
:00000001FF
